{
  "address": "0xd8c532c73A3cDc13331b1BAB77f9Ec7cbDc182fe",
  "abi": [
    {
      "inputs": [
        {
          "internalType": "address",
          "name": "_vrfCoordinator",
          "type": "address"
        },
        {
          "internalType": "address",
          "name": "_linkToken",
          "type": "address"
        },
        {
          "internalType": "bytes32",
          "name": "_keyHash",
          "type": "bytes32"
        },
        {
          "internalType": "uint256",
          "name": "_fee",
          "type": "uint256"
        }
      ],
      "stateMutability": "nonpayable",
      "type": "constructor"
    },
    {
      "anonymous": false,
      "inputs": [
        {
          "indexed": true,
          "internalType": "address",
          "name": "owner",
          "type": "address"
        },
        {
          "indexed": true,
          "internalType": "address",
          "name": "approved",
          "type": "address"
        },
        {
          "indexed": true,
          "internalType": "uint256",
          "name": "tokenId",
          "type": "uint256"
        }
      ],
      "name": "Approval",
      "type": "event"
    },
    {
      "anonymous": false,
      "inputs": [
        {
          "indexed": true,
          "internalType": "address",
          "name": "owner",
          "type": "address"
        },
        {
          "indexed": true,
          "internalType": "address",
          "name": "operator",
          "type": "address"
        },
        {
          "indexed": false,
          "internalType": "bool",
          "name": "approved",
          "type": "bool"
        }
      ],
      "name": "ApprovalForAll",
      "type": "event"
    },
    {
      "anonymous": false,
      "inputs": [
        {
          "indexed": true,
          "internalType": "address",
          "name": "from",
          "type": "address"
        },
        {
          "indexed": true,
          "internalType": "address",
          "name": "to",
          "type": "address"
        },
        {
          "indexed": true,
          "internalType": "uint256",
          "name": "tokenId",
          "type": "uint256"
        }
      ],
      "name": "Transfer",
      "type": "event"
    },
    {
      "anonymous": false,
      "inputs": [
        {
          "indexed": true,
          "internalType": "uint256",
          "name": "tokenId",
          "type": "uint256"
        },
        {
          "indexed": false,
          "internalType": "string",
          "name": "tokenURI",
          "type": "string"
        }
      ],
      "name": "createdRandomSVG",
      "type": "event"
    },
    {
      "anonymous": false,
      "inputs": [
        {
          "indexed": true,
          "internalType": "uint256",
          "name": "tokenId",
          "type": "uint256"
        },
        {
          "indexed": false,
          "internalType": "uint256",
          "name": "randomNumber",
          "type": "uint256"
        }
      ],
      "name": "createdUnfinishedRandomSVG",
      "type": "event"
    },
    {
      "anonymous": false,
      "inputs": [
        {
          "indexed": true,
          "internalType": "bytes32",
          "name": "requestId",
          "type": "bytes32"
        },
        {
          "indexed": true,
          "internalType": "uint256",
          "name": "tokenId",
          "type": "uint256"
        }
      ],
      "name": "requestedRandomSVG",
      "type": "event"
    },
    {
      "inputs": [
        {
          "internalType": "address",
          "name": "to",
          "type": "address"
        },
        {
          "internalType": "uint256",
          "name": "tokenId",
          "type": "uint256"
        }
      ],
      "name": "approve",
      "outputs": [],
      "stateMutability": "nonpayable",
      "type": "function"
    },
    {
      "inputs": [
        {
          "internalType": "address",
          "name": "owner",
          "type": "address"
        }
      ],
      "name": "balanceOf",
      "outputs": [
        {
          "internalType": "uint256",
          "name": "",
          "type": "uint256"
        }
      ],
      "stateMutability": "view",
      "type": "function"
    },
    {
      "inputs": [
        {
          "internalType": "uint256",
          "name": "",
          "type": "uint256"
        }
      ],
      "name": "colors",
      "outputs": [
        {
          "internalType": "string",
          "name": "",
          "type": "string"
        }
      ],
      "stateMutability": "view",
      "type": "function"
    },
    {
      "inputs": [],
      "name": "create",
      "outputs": [
        {
          "internalType": "bytes32",
          "name": "requestId",
          "type": "bytes32"
        }
      ],
      "stateMutability": "nonpayable",
      "type": "function"
    },
    {
      "inputs": [],
      "name": "fee",
      "outputs": [
        {
          "internalType": "uint256",
          "name": "",
          "type": "uint256"
        }
      ],
      "stateMutability": "view",
      "type": "function"
    },
    {
      "inputs": [
        {
          "internalType": "uint256",
          "name": "tokenId",
          "type": "uint256"
        }
      ],
      "name": "finishMint",
      "outputs": [],
      "stateMutability": "nonpayable",
      "type": "function"
    },
    {
      "inputs": [
        {
          "internalType": "uint256",
          "name": "randomNumber",
          "type": "uint256"
        },
        {
          "internalType": "uint256",
          "name": "_i",
          "type": "uint256"
        }
      ],
      "name": "generateLine",
      "outputs": [
        {
          "internalType": "string",
          "name": "line",
          "type": "string"
        }
      ],
      "stateMutability": "view",
      "type": "function"
    },
    {
      "inputs": [
        {
          "internalType": "uint256",
          "name": "randomNumber",
          "type": "uint256"
        }
      ],
      "name": "generateSVG",
      "outputs": [
        {
          "internalType": "string",
          "name": "finalSVG",
          "type": "string"
        }
      ],
      "stateMutability": "view",
      "type": "function"
    },
    {
      "inputs": [
        {
          "internalType": "uint256",
          "name": "tokenId",
          "type": "uint256"
        }
      ],
      "name": "getApproved",
      "outputs": [
        {
          "internalType": "address",
          "name": "",
          "type": "address"
        }
      ],
      "stateMutability": "view",
      "type": "function"
    },
    {
      "inputs": [
        {
          "internalType": "address",
          "name": "owner",
          "type": "address"
        },
        {
          "internalType": "address",
          "name": "operator",
          "type": "address"
        }
      ],
      "name": "isApprovedForAll",
      "outputs": [
        {
          "internalType": "bool",
          "name": "",
          "type": "bool"
        }
      ],
      "stateMutability": "view",
      "type": "function"
    },
    {
      "inputs": [],
      "name": "keyHash",
      "outputs": [
        {
          "internalType": "bytes32",
          "name": "",
          "type": "bytes32"
        }
      ],
      "stateMutability": "view",
      "type": "function"
    },
    {
      "inputs": [],
      "name": "maxLines",
      "outputs": [
        {
          "internalType": "uint256",
          "name": "",
          "type": "uint256"
        }
      ],
      "stateMutability": "view",
      "type": "function"
    },
    {
      "inputs": [],
      "name": "name",
      "outputs": [
        {
          "internalType": "string",
          "name": "",
          "type": "string"
        }
      ],
      "stateMutability": "view",
      "type": "function"
    },
    {
      "inputs": [
        {
          "internalType": "uint256",
          "name": "tokenId",
          "type": "uint256"
        }
      ],
      "name": "ownerOf",
      "outputs": [
        {
          "internalType": "address",
          "name": "",
          "type": "address"
        }
      ],
      "stateMutability": "view",
      "type": "function"
    },
    {
      "inputs": [
        {
          "internalType": "bytes32",
          "name": "requestId",
          "type": "bytes32"
        },
        {
          "internalType": "uint256",
          "name": "randomness",
          "type": "uint256"
        }
      ],
      "name": "rawFulfillRandomness",
      "outputs": [],
      "stateMutability": "nonpayable",
      "type": "function"
    },
    {
      "inputs": [
        {
          "internalType": "bytes32",
          "name": "",
          "type": "bytes32"
        }
      ],
      "name": "requestIdToSender",
      "outputs": [
        {
          "internalType": "address",
          "name": "",
          "type": "address"
        }
      ],
      "stateMutability": "view",
      "type": "function"
    },
    {
      "inputs": [
        {
          "internalType": "bytes32",
          "name": "",
          "type": "bytes32"
        }
      ],
      "name": "requestIdToTokenId",
      "outputs": [
        {
          "internalType": "uint256",
          "name": "",
          "type": "uint256"
        }
      ],
      "stateMutability": "view",
      "type": "function"
    },
    {
      "inputs": [
        {
          "internalType": "address",
          "name": "from",
          "type": "address"
        },
        {
          "internalType": "address",
          "name": "to",
          "type": "address"
        },
        {
          "internalType": "uint256",
          "name": "tokenId",
          "type": "uint256"
        }
      ],
      "name": "safeTransferFrom",
      "outputs": [],
      "stateMutability": "nonpayable",
      "type": "function"
    },
    {
      "inputs": [
        {
          "internalType": "address",
          "name": "from",
          "type": "address"
        },
        {
          "internalType": "address",
          "name": "to",
          "type": "address"
        },
        {
          "internalType": "uint256",
          "name": "tokenId",
          "type": "uint256"
        },
        {
          "internalType": "bytes",
          "name": "_data",
          "type": "bytes"
        }
      ],
      "name": "safeTransferFrom",
      "outputs": [],
      "stateMutability": "nonpayable",
      "type": "function"
    },
    {
      "inputs": [
        {
          "internalType": "address",
          "name": "operator",
          "type": "address"
        },
        {
          "internalType": "bool",
          "name": "approved",
          "type": "bool"
        }
      ],
      "name": "setApprovalForAll",
      "outputs": [],
      "stateMutability": "nonpayable",
      "type": "function"
    },
    {
      "inputs": [],
      "name": "size",
      "outputs": [
        {
          "internalType": "uint256",
          "name": "",
          "type": "uint256"
        }
      ],
      "stateMutability": "view",
      "type": "function"
    },
    {
      "inputs": [
        {
          "internalType": "bytes4",
          "name": "interfaceId",
          "type": "bytes4"
        }
      ],
      "name": "supportsInterface",
      "outputs": [
        {
          "internalType": "bool",
          "name": "",
          "type": "bool"
        }
      ],
      "stateMutability": "view",
      "type": "function"
    },
    {
      "inputs": [],
      "name": "symbol",
      "outputs": [
        {
          "internalType": "string",
          "name": "",
          "type": "string"
        }
      ],
      "stateMutability": "view",
      "type": "function"
    },
    {
      "inputs": [],
      "name": "tokenCounter",
      "outputs": [
        {
          "internalType": "uint256",
          "name": "",
          "type": "uint256"
        }
      ],
      "stateMutability": "view",
      "type": "function"
    },
    {
      "inputs": [
        {
          "internalType": "uint256",
          "name": "",
          "type": "uint256"
        }
      ],
      "name": "tokenIdToRandomNumber",
      "outputs": [
        {
          "internalType": "uint256",
          "name": "",
          "type": "uint256"
        }
      ],
      "stateMutability": "view",
      "type": "function"
    },
    {
      "inputs": [
        {
          "internalType": "uint256",
          "name": "tokenId",
          "type": "uint256"
        }
      ],
      "name": "tokenURI",
      "outputs": [
        {
          "internalType": "string",
          "name": "",
          "type": "string"
        }
      ],
      "stateMutability": "view",
      "type": "function"
    },
    {
      "inputs": [
        {
          "internalType": "address",
          "name": "from",
          "type": "address"
        },
        {
          "internalType": "address",
          "name": "to",
          "type": "address"
        },
        {
          "internalType": "uint256",
          "name": "tokenId",
          "type": "uint256"
        }
      ],
      "name": "transferFrom",
      "outputs": [],
      "stateMutability": "nonpayable",
      "type": "function"
    }
  ],
  "transactionHash": "0x9722f83522eafe47351e8a291bc1491cbb1af2764d1b3dd27c2650607018ad3e",
  "args": [
    "0xb3dCcb4Cf7a26f6cf6B120Cf5A73875B7BBc655B",
    "0x01BE23585060835E02B77ef475b0Cc51aA1e0709",
    "0x2ed0feb3e7fd2022120aa84fab1945545a9f2ffc9076fd6156fa96eaff4c1311",
    "100000000000000000"
  ],
  "numDeployments": 1,
  "solcInputHash": "33aee7c55ca8baae9c48919a48cb284d",
  "bytecode": "0x60c06040523480156200001157600080fd5b5060405162004d8a38038062004d8a83398181016040528101906200003791906200047f565b83836040518060400160405280600b81526020017f72616e646f6d6c696e65730000000000000000000000000000000000000000008152506040518060400160405280600581526020017f724c494e450000000000000000000000000000000000000000000000000000008152508160009080519060200190620000bd929190620002b5565b508060019080519060200190620000d6929190620002b5565b5050508173ffffffffffffffffffffffffffffffffffffffff1660a08173ffffffffffffffffffffffffffffffffffffffff1660601b815250508073ffffffffffffffffffffffffffffffffffffffff1660808173ffffffffffffffffffffffffffffffffffffffff1660601b8152505050508160088190555080600981905550600a600b819055506101f4600c819055506040518060a001604052806040518060400160405280600581526020017f677265656e00000000000000000000000000000000000000000000000000000081525081526020016040518060400160405280600581526020017f626c61636b00000000000000000000000000000000000000000000000000000081525081526020016040518060400160405280600381526020017f726564000000000000000000000000000000000000000000000000000000000081525081526020016040518060400160405280600481526020017f626c75650000000000000000000000000000000000000000000000000000000081525081526020016040518060400160405280600581526020017f7768697465000000000000000000000000000000000000000000000000000000815250815250600d906005620002aa92919062000346565b5050505050620005e6565b828054620002c39062000533565b90600052602060002090601f016020900481019282620002e7576000855562000333565b82601f106200030257805160ff191683800117855562000333565b8280016001018555821562000333579182015b828111156200033257825182559160200191906001019062000315565b5b509050620003429190620003ad565b5090565b8280548282559060005260206000209081019282156200039a579160200282015b828111156200039957825182908051906020019062000388929190620002b5565b509160200191906001019062000367565b5b509050620003a99190620003cc565b5090565b5b80821115620003c8576000816000905550600101620003ae565b5090565b5b80821115620003f05760008181620003e69190620003f4565b50600101620003cd565b5090565b508054620004029062000533565b6000825580601f1062000416575062000437565b601f016020900490600052602060002090810190620004369190620003ad565b5b50565b6000815190506200044b8162000598565b92915050565b6000815190506200046281620005b2565b92915050565b6000815190506200047981620005cc565b92915050565b600080600080608085870312156200049657600080fd5b6000620004a6878288016200043a565b9450506020620004b9878288016200043a565b9350506040620004cc8782880162000451565b9250506060620004df8782880162000468565b91505092959194509250565b6000620004f88262000509565b9050919050565b6000819050919050565b600073ffffffffffffffffffffffffffffffffffffffff82169050919050565b6000819050919050565b600060028204905060018216806200054c57607f821691505b6020821081141562000563576200056262000569565b5b50919050565b7f4e487b7100000000000000000000000000000000000000000000000000000000600052602260045260246000fd5b620005a381620004eb565b8114620005af57600080fd5b50565b620005bd81620004ff565b8114620005c957600080fd5b50565b620005d78162000529565b8114620005e357600080fd5b50565b60805160601c60a05160601c6147716200061960003960008181610fe501526121c00152600061218401526147716000f3fe608060405234801561001057600080fd5b50600436106101a95760003560e01c806370a08231116100f9578063b88d4fde11610097578063d082e38111610071578063d082e38114610518578063ddca3f4314610536578063e985e9c514610554578063efc81a8c14610584576101a9565b8063b88d4fde1461049c578063bd11f69d146104b8578063c87b56dd146104e8576101a9565b8063949d225d116100d3578063949d225d1461041457806395d89b41146104325780639c1cd79514610450578063a22cb46514610480576101a9565b806370a08231146103aa57806393937d71146103da57806394985ddd146103f8576101a9565b806323b872dd1161016657806361728f391161014057806361728f3914610310578063624194c71461032e5780636352211e1461034a5780636dcee4ca1461037a576101a9565b806323b872dd146102a857806342842e0e146102c45780634e55453f146102e0576101a9565b806301ffc9a7146101ae57806306fdde03146101de578063081812fc146101fc578063095ea7b31461022c578063219c0eee1461024857806322881f8814610278575b600080fd5b6101c860048036038101906101c39190612e8f565b6105a2565b6040516101d59190613e38565b60405180910390f35b6101e6610684565b6040516101f39190613edc565b60405180910390f35b61021660048036038101906102119190612ee1565b610716565b6040516102239190613d93565b60405180910390f35b61024660048036038101906102419190612dc5565b61079b565b005b610262600480360381019061025d9190612e2a565b6108b3565b60405161026f9190613d93565b60405180910390f35b610292600480360381019061028d9190612e2a565b6108e6565b60405161029f91906141e5565b60405180910390f35b6102c260048036038101906102bd9190612cbf565b6108fe565b005b6102de60048036038101906102d99190612cbf565b61095e565b005b6102fa60048036038101906102f59190612f0a565b61097e565b6040516103079190613edc565b60405180910390f35b610318610bae565b6040516103259190613e53565b60405180910390f35b61034860048036038101906103439190612ee1565b610bb4565b005b610364600480360381019061035f9190612ee1565b610d23565b6040516103719190613d93565b60405180910390f35b610394600480360381019061038f9190612ee1565b610dd5565b6040516103a19190613edc565b60405180910390f35b6103c460048036038101906103bf9190612c5a565b610f25565b6040516103d191906141e5565b60405180910390f35b6103e2610fdd565b6040516103ef91906141e5565b60405180910390f35b610412600480360381019061040d9190612e53565b610fe3565b005b61041c61107f565b60405161042991906141e5565b60405180910390f35b61043a611085565b6040516104479190613edc565b60405180910390f35b61046a60048036038101906104659190612ee1565b611117565b60405161047791906141e5565b60405180910390f35b61049a60048036038101906104959190612d89565b61112f565b005b6104b660048036038101906104b19190612d0e565b611145565b005b6104d260048036038101906104cd9190612ee1565b6111a7565b6040516104df9190613edc565b60405180910390f35b61050260048036038101906104fd9190612ee1565b611253565b60405161050f9190613edc565b60405180910390f35b6105206113a5565b60405161052d91906141e5565b60405180910390f35b61053e6113ab565b60405161054b91906141e5565b60405180910390f35b61056e60048036038101906105699190612c83565b6113b1565b60405161057b9190613e38565b60405180910390f35b61058c611445565b6040516105999190613e53565b60405180910390f35b60007f80ac58cd000000000000000000000000000000000000000000000000000000007bffffffffffffffffffffffffffffffffffffffffffffffffffffffff1916827bffffffffffffffffffffffffffffffffffffffffffffffffffffffff1916148061066d57507f5b5e139f000000000000000000000000000000000000000000000000000000007bffffffffffffffffffffffffffffffffffffffffffffffffffffffff1916827bffffffffffffffffffffffffffffffffffffffffffffffffffffffff1916145b8061067d575061067c82611514565b5b9050919050565b606060008054610693906144fb565b80601f01602080910402602001604051908101604052809291908181526020018280546106bf906144fb565b801561070c5780601f106106e15761010080835404028352916020019161070c565b820191906000526020600020905b8154815290600101906020018083116106ef57829003601f168201915b5050505050905090565b60006107218261157e565b610760576040517f08c379a000000000000000000000000000000000000000000000000000000000815260040161075790614105565b60405180910390fd5b6004600083815260200190815260200160002060009054906101000a900473ffffffffffffffffffffffffffffffffffffffff169050919050565b60006107a682610d23565b90508073ffffffffffffffffffffffffffffffffffffffff168373ffffffffffffffffffffffffffffffffffffffff161415610817576040517f08c379a000000000000000000000000000000000000000000000000000000000815260040161080e90614185565b60405180910390fd5b8073ffffffffffffffffffffffffffffffffffffffff166108366115ea565b73ffffffffffffffffffffffffffffffffffffffff16148061086557506108648161085f6115ea565b6113b1565b5b6108a4576040517f08c379a000000000000000000000000000000000000000000000000000000000815260040161089b90614045565b60405180910390fd5b6108ae83836115f2565b505050565b600e6020528060005260406000206000915054906101000a900473ffffffffffffffffffffffffffffffffffffffff1681565b600f6020528060005260406000206000915090505481565b61090f6109096115ea565b826116ab565b61094e576040517f08c379a0000000000000000000000000000000000000000000000000000000008152600401610945906141a5565b60405180910390fd5b610959838383611789565b505050565b61097983838360405180602001604052806000815250611145565b505050565b60606000600d80549050846002600c5461099891906143a0565b6040516020016109a9929190613d67565b6040516020818303038152906040528051906020012060001c6109cc919061458a565b905060006001600c5486866040516020016109e8929190614200565b6040516020818303038152906040528051906020012060001c610a0b919061458a565b610a1591906142e2565b905060006001600c5487600188610a2c91906142e2565b604051602001610a3d929190614200565b6040516020818303038152906040528051906020012060001c610a60919061458a565b610a6a91906142e2565b905060006001600c5488600289610a8191906142e2565b604051602001610a92929190614200565b6040516020818303038152906040528051906020012060001c610ab5919061458a565b610abf91906142e2565b905060006001600c548960038a610ad691906142e2565b604051602001610ae7929190614200565b6040516020818303038152906040528051906020012060001c610b0a919061458a565b610b1491906142e2565b9050610b1f846119e5565b610b28846119e5565b610b31846119e5565b610b3a846119e5565b600d8981548110610b74577f4e487b7100000000000000000000000000000000000000000000000000000000600052603260045260246000fd5b90600052602060002001604051602001610b92959493929190613c8b565b6040516020818303038152906040529550505050505092915050565b60085481565b6000610bbf82611253565b511115610c01576040517f08c379a0000000000000000000000000000000000000000000000000000000008152600401610bf890613fc5565b60405180910390fd5b600a548110610c45576040517f08c379a0000000000000000000000000000000000000000000000000000000008152600401610c3c906141c5565b60405180910390fd5b6000601060008381526020019081526020016000205411610c9b576040517f08c379a0000000000000000000000000000000000000000000000000000000008152600401610c9290613f65565b60405180910390fd5b6000601060008381526020019081526020016000205490506000610cbe82610dd5565b90506000610ccb82611bba565b90506000610cd882611c4d565b9050610ce48582611c9d565b847fb662a5131fe3646dc05ebcc07180161553152610daffb7bb78df70229f0fbe2a82604051610d149190613edc565b60405180910390a25050505050565b6000806002600084815260200190815260200160002060009054906101000a900473ffffffffffffffffffffffffffffffffffffffff169050600073ffffffffffffffffffffffffffffffffffffffff168173ffffffffffffffffffffffffffffffffffffffff161415610dcc576040517f08c379a0000000000000000000000000000000000000000000000000000000008152600401610dc390614085565b60405180910390fd5b80915050919050565b606060006001600b5484610de9919061458a565b610df391906142e2565b9050610e346040518060400160405280601d81526020017f6e756d626572206f66206c696e657320696e204e46542061726520257300000081525082611d11565b610e3f600c546119e5565b610e4a600c546119e5565b604051602001610e5b929190613c3b565b604051602081830303815290604052915060005b81811015610ebd576000610e83858361097e565b90508381604051602001610e98929190613bf5565b6040516020818303038152906040529350508080610eb59061452d565b915050610e6f565b5081604051602001610ecf9190613c19565b6040516020818303038152906040529150610f1f6040518060400160405280601581526020017f596f75722046696e616c205356472069733a202573000000000000000000000081525083611dad565b50919050565b60008073ffffffffffffffffffffffffffffffffffffffff168273ffffffffffffffffffffffffffffffffffffffff161415610f96576040517f08c379a0000000000000000000000000000000000000000000000000000000008152600401610f8d90614065565b60405180910390fd5b600360008373ffffffffffffffffffffffffffffffffffffffff1673ffffffffffffffffffffffffffffffffffffffff168152602001908152602001600020549050919050565b600b5481565b7f000000000000000000000000000000000000000000000000000000000000000073ffffffffffffffffffffffffffffffffffffffff163373ffffffffffffffffffffffffffffffffffffffff1614611071576040517f08c379a000000000000000000000000000000000000000000000000000000000815260040161106890614165565b60405180910390fd5b61107b8282611e49565b5050565b600c5481565b606060018054611094906144fb565b80601f01602080910402602001604051908101604052809291908181526020018280546110c0906144fb565b801561110d5780601f106110e25761010080835404028352916020019161110d565b820191906000526020600020905b8154815290600101906020018083116110f057829003601f168201915b5050505050905090565b60106020528060005260406000206000915090505481565b61114161113a6115ea565b8383611ef9565b5050565b6111566111506115ea565b836116ab565b611195576040517f08c379a000000000000000000000000000000000000000000000000000000000815260040161118c906141a5565b60405180910390fd5b6111a184848484612066565b50505050565b600d81815481106111b757600080fd5b9060005260206000200160009150905080546111d2906144fb565b80601f01602080910402602001604051908101604052809291908181526020018280546111fe906144fb565b801561124b5780601f106112205761010080835404028352916020019161124b565b820191906000526020600020905b81548152906001019060200180831161122e57829003601f168201915b505050505081565b606061125e8261157e565b61129d576040517f08c379a0000000000000000000000000000000000000000000000000000000008152600401611294906140e5565b60405180910390fd5b60006006600084815260200190815260200160002080546112bd906144fb565b80601f01602080910402602001604051908101604052809291908181526020018280546112e9906144fb565b80156113365780601f1061130b57610100808354040283529160200191611336565b820191906000526020600020905b81548152906001019060200180831161131957829003601f168201915b5050505050905060006113476120c2565b905060008151141561135d5781925050506113a0565b60008251111561139257808260405160200161137a929190613bf5565b604051602081830303815290604052925050506113a0565b61139b846120d9565b925050505b919050565b600a5481565b60095481565b6000600560008473ffffffffffffffffffffffffffffffffffffffff1673ffffffffffffffffffffffffffffffffffffffff16815260200190815260200160002060008373ffffffffffffffffffffffffffffffffffffffff1673ffffffffffffffffffffffffffffffffffffffff16815260200190815260200160002060009054906101000a900460ff16905092915050565b6000611455600854600954612180565b905033600e600083815260200190815260200160002060006101000a81548173ffffffffffffffffffffffffffffffffffffffff021916908373ffffffffffffffffffffffffffffffffffffffff1602179055506000600a54905080600f6000848152602001908152602001600020819055506001600a60008282546114db91906142e2565b9250508190555080827fb97343f1f2afc4959f818046ccae28fd7b05fcd2b7a7dc651cbb52a096cae03560405160405180910390a35090565b60007f01ffc9a7000000000000000000000000000000000000000000000000000000007bffffffffffffffffffffffffffffffffffffffffffffffffffffffff1916827bffffffffffffffffffffffffffffffffffffffffffffffffffffffff1916149050919050565b60008073ffffffffffffffffffffffffffffffffffffffff166002600084815260200190815260200160002060009054906101000a900473ffffffffffffffffffffffffffffffffffffffff1673ffffffffffffffffffffffffffffffffffffffff1614159050919050565b600033905090565b816004600083815260200190815260200160002060006101000a81548173ffffffffffffffffffffffffffffffffffffffff021916908373ffffffffffffffffffffffffffffffffffffffff160217905550808273ffffffffffffffffffffffffffffffffffffffff1661166583610d23565b73ffffffffffffffffffffffffffffffffffffffff167f8c5be1e5ebec7d5bd14f71427d1e84f3dd0314c0f7b2291e5b200ac8c7c3b92560405160405180910390a45050565b60006116b68261157e565b6116f5576040517f08c379a00000000000000000000000000000000000000000000000000000000081526004016116ec90614025565b60405180910390fd5b600061170083610d23565b90508073ffffffffffffffffffffffffffffffffffffffff168473ffffffffffffffffffffffffffffffffffffffff16148061176f57508373ffffffffffffffffffffffffffffffffffffffff1661175784610716565b73ffffffffffffffffffffffffffffffffffffffff16145b80611780575061177f81856113b1565b5b91505092915050565b8273ffffffffffffffffffffffffffffffffffffffff166117a982610d23565b73ffffffffffffffffffffffffffffffffffffffff16146117ff576040517f08c379a00000000000000000000000000000000000000000000000000000000081526004016117f690614125565b60405180910390fd5b600073ffffffffffffffffffffffffffffffffffffffff168273ffffffffffffffffffffffffffffffffffffffff16141561186f576040517f08c379a000000000000000000000000000000000000000000000000000000000815260040161186690613fe5565b60405180910390fd5b61187a8383836122e2565b6118856000826115f2565b6001600360008573ffffffffffffffffffffffffffffffffffffffff1673ffffffffffffffffffffffffffffffffffffffff16815260200190815260200160002060008282546118d591906143fa565b925050819055506001600360008473ffffffffffffffffffffffffffffffffffffffff1673ffffffffffffffffffffffffffffffffffffffff168152602001908152602001600020600082825461192c91906142e2565b92505081905550816002600083815260200190815260200160002060006101000a81548173ffffffffffffffffffffffffffffffffffffffff021916908373ffffffffffffffffffffffffffffffffffffffff160217905550808273ffffffffffffffffffffffffffffffffffffffff168473ffffffffffffffffffffffffffffffffffffffff167fddf252ad1be2c89b69c2b068fc378daa952ba7f163c4a11628f55a4df523b3ef60405160405180910390a4505050565b60606000821415611a2d576040518060400160405280600181526020017f30000000000000000000000000000000000000000000000000000000000000008152509050611bb5565b600082905060005b60008214611a5f578080611a489061452d565b915050600a82611a58919061436f565b9150611a35565b60008167ffffffffffffffff811115611aa1577f4e487b7100000000000000000000000000000000000000000000000000000000600052604160045260246000fd5b6040519080825280601f01601f191660200182016040528015611ad35781602001600182028036833780820191505090505b50905060008290505b60008614611bad57600181611af191906143fa565b90506000600a8088611b03919061436f565b611b0d91906143a0565b87611b1891906143fa565b6030611b249190614338565b905060008160f81b905080848481518110611b68577f4e487b7100000000000000000000000000000000000000000000000000000000600052603260045260246000fd5b60200101907effffffffffffffffffffffffffffffffffffffffffffffffffffffffffffff1916908160001a905350600a88611ba4919061436f565b97505050611adc565b819450505050505b919050565b606060006040518060400160405280601a81526020017f646174613a696d6167652f7376672b786d6c3b6261736536342c00000000000081525090506000611c2084604051602001611c0c9190613bde565b6040516020818303038152906040526122e7565b90508181604051602001611c35929190613bf5565b60405160208183030381529060405292505050919050565b6060611c7782604051602001611c639190613d18565b6040516020818303038152906040526122e7565b604051602001611c879190613d45565b6040516020818303038152906040529050919050565b611ca68261157e565b611ce5576040517f08c379a0000000000000000000000000000000000000000000000000000000008152600401611cdc906140a5565b60405180910390fd5b80600660008481526020019081526020016000209080519060200190611d0c929190612abc565b505050565b611da98282604051602401611d27929190613f35565b6040516020818303038152906040527f9710a9d0000000000000000000000000000000000000000000000000000000007bffffffffffffffffffffffffffffffffffffffffffffffffffffffff19166020820180517bffffffffffffffffffffffffffffffffffffffffffffffffffffffff8381831617835250505050612486565b5050565b611e458282604051602401611dc3929190613efe565b6040516020818303038152906040527f4b5c4277000000000000000000000000000000000000000000000000000000007bffffffffffffffffffffffffffffffffffffffffffffffffffffffff19166020820180517bffffffffffffffffffffffffffffffffffffffffffffffffffffffff8381831617835250505050612486565b5050565b6000600e600084815260200190815260200160002060009054906101000a900473ffffffffffffffffffffffffffffffffffffffff1690506000600f6000858152602001908152602001600020549050611ea382826124af565b826010600083815260200190815260200160002081905550807fea43dac1b92e3e24ce46727d896f6d773504b5b704a6485ed74673b7db4d736284604051611eeb91906141e5565b60405180910390a250505050565b8173ffffffffffffffffffffffffffffffffffffffff168373ffffffffffffffffffffffffffffffffffffffff161415611f68576040517f08c379a0000000000000000000000000000000000000000000000000000000008152600401611f5f90614005565b60405180910390fd5b80600560008573ffffffffffffffffffffffffffffffffffffffff1673ffffffffffffffffffffffffffffffffffffffff16815260200190815260200160002060008473ffffffffffffffffffffffffffffffffffffffff1673ffffffffffffffffffffffffffffffffffffffff16815260200190815260200160002060006101000a81548160ff0219169083151502179055508173ffffffffffffffffffffffffffffffffffffffff168373ffffffffffffffffffffffffffffffffffffffff167f17307eab39ab6107e8899845ad3d59bd9653f200f220920489ca2b5937696c31836040516120599190613e38565b60405180910390a3505050565b612071848484611789565b61207d848484846124cd565b6120bc576040517f08c379a00000000000000000000000000000000000000000000000000000000081526004016120b390613f85565b60405180910390fd5b50505050565b606060405180602001604052806000815250905090565b60606120e48261157e565b612123576040517f08c379a000000000000000000000000000000000000000000000000000000000815260040161211a90614145565b60405180910390fd5b600061212d6120c2565b9050600081511161214d5760405180602001604052806000815250612178565b8061215784612664565b604051602001612168929190613bf5565b6040516020818303038152906040525b915050919050565b60007f000000000000000000000000000000000000000000000000000000000000000073ffffffffffffffffffffffffffffffffffffffff16634000aea07f0000000000000000000000000000000000000000000000000000000000000000848660006040516020016121f4929190613e6e565b6040516020818303038152906040526040518463ffffffff1660e01b815260040161222193929190613dfa565b602060405180830381600087803b15801561223b57600080fd5b505af115801561224f573d6000803e3d6000fd5b505050506040513d601f19601f820116820180604052508101906122739190612e01565b506000612296846000306007600089815260200190815260200160002054612811565b9050600160076000868152602001908152602001600020546122b891906142e2565b60076000868152602001908152602001600020819055506122d9848261284d565b91505092915050565b505050565b606060008251141561230a57604051806020016040528060008152509050612481565b60006040518060600160405280604081526020016146fc604091399050600060036002855161233991906142e2565b612343919061436f565b600461234f91906143a0565b9050600060208261236091906142e2565b67ffffffffffffffff81111561239f577f4e487b7100000000000000000000000000000000000000000000000000000000600052604160045260246000fd5b6040519080825280601f01601f1916602001820160405280156123d15781602001600182028036833780820191505090505b509050818152600183018586518101602084015b81831015612440576003830192508251603f8160121c168501518253600182019150603f81600c1c168501518253600182019150603f8160061c168501518253600182019150603f81168501518253600182019150506123e5565b60038951066001811461245a576002811461246a57612475565b613d3d60f01b6002830352612475565b603d60f81b60018303525b50505050508093505050505b919050565b60008151905060006a636f6e736f6c652e6c6f679050602083016000808483855afa5050505050565b6124c9828260405180602001604052806000815250612880565b5050565b60006124ee8473ffffffffffffffffffffffffffffffffffffffff166128db565b15612657578373ffffffffffffffffffffffffffffffffffffffff1663150b7a026125176115ea565b8786866040518563ffffffff1660e01b81526004016125399493929190613dae565b602060405180830381600087803b15801561255357600080fd5b505af192505050801561258457506040513d601f19601f820116820180604052508101906125819190612eb8565b60015b612607573d80600081146125b4576040519150601f19603f3d011682016040523d82523d6000602084013e6125b9565b606091505b506000815114156125ff576040517f08c379a00000000000000000000000000000000000000000000000000000000081526004016125f690613f85565b60405180910390fd5b805181602001fd5b63150b7a0260e01b7bffffffffffffffffffffffffffffffffffffffffffffffffffffffff1916817bffffffffffffffffffffffffffffffffffffffffffffffffffffffff19161491505061265c565b600190505b949350505050565b606060008214156126ac576040518060400160405280600181526020017f3000000000000000000000000000000000000000000000000000000000000000815250905061280c565b600082905060005b600082146126de5780806126c79061452d565b915050600a826126d7919061436f565b91506126b4565b60008167ffffffffffffffff811115612720577f4e487b7100000000000000000000000000000000000000000000000000000000600052604160045260246000fd5b6040519080825280601f01601f1916602001820160405280156127525781602001600182028036833780820191505090505b5090505b600085146128055760018261276b91906143fa565b9150600a8561277a919061458a565b603061278691906142e2565b60f81b8183815181106127c2577f4e487b7100000000000000000000000000000000000000000000000000000000600052603260045260246000fd5b60200101907effffffffffffffffffffffffffffffffffffffffffffffffffffffffffffff1916908160001a905350600a856127fe919061436f565b9450612756565b8093505050505b919050565b60008484848460405160200161282a9493929190613e97565b6040516020818303038152906040528051906020012060001c9050949350505050565b60008282604051602001612862929190613bb2565b60405160208183030381529060405280519060200120905092915050565b61288a83836128ee565b61289760008484846124cd565b6128d6576040517f08c379a00000000000000000000000000000000000000000000000000000000081526004016128cd90613f85565b60405180910390fd5b505050565b600080823b905060008111915050919050565b600073ffffffffffffffffffffffffffffffffffffffff168273ffffffffffffffffffffffffffffffffffffffff16141561295e576040517f08c379a0000000000000000000000000000000000000000000000000000000008152600401612955906140c5565b60405180910390fd5b6129678161157e565b156129a7576040517f08c379a000000000000000000000000000000000000000000000000000000000815260040161299e90613fa5565b60405180910390fd5b6129b3600083836122e2565b6001600360008473ffffffffffffffffffffffffffffffffffffffff1673ffffffffffffffffffffffffffffffffffffffff1681526020019081526020016000206000828254612a0391906142e2565b92505081905550816002600083815260200190815260200160002060006101000a81548173ffffffffffffffffffffffffffffffffffffffff021916908373ffffffffffffffffffffffffffffffffffffffff160217905550808273ffffffffffffffffffffffffffffffffffffffff16600073ffffffffffffffffffffffffffffffffffffffff167fddf252ad1be2c89b69c2b068fc378daa952ba7f163c4a11628f55a4df523b3ef60405160405180910390a45050565b828054612ac8906144fb565b90600052602060002090601f016020900481019282612aea5760008555612b31565b82601f10612b0357805160ff1916838001178555612b31565b82800160010185558215612b31579182015b82811115612b30578251825591602001919060010190612b15565b5b509050612b3e9190612b42565b5090565b5b80821115612b5b576000816000905550600101612b43565b5090565b6000612b72612b6d8461425a565b614229565b905082815260208101848484011115612b8a57600080fd5b612b958482856144b9565b509392505050565b600081359050612bac81614688565b92915050565b600081359050612bc18161469f565b92915050565b600081519050612bd68161469f565b92915050565b600081359050612beb816146b6565b92915050565b600081359050612c00816146cd565b92915050565b600081519050612c15816146cd565b92915050565b600082601f830112612c2c57600080fd5b8135612c3c848260208601612b5f565b91505092915050565b600081359050612c54816146e4565b92915050565b600060208284031215612c6c57600080fd5b6000612c7a84828501612b9d565b91505092915050565b60008060408385031215612c9657600080fd5b6000612ca485828601612b9d565b9250506020612cb585828601612b9d565b9150509250929050565b600080600060608486031215612cd457600080fd5b6000612ce286828701612b9d565b9350506020612cf386828701612b9d565b9250506040612d0486828701612c45565b9150509250925092565b60008060008060808587031215612d2457600080fd5b6000612d3287828801612b9d565b9450506020612d4387828801612b9d565b9350506040612d5487828801612c45565b925050606085013567ffffffffffffffff811115612d7157600080fd5b612d7d87828801612c1b565b91505092959194509250565b60008060408385031215612d9c57600080fd5b6000612daa85828601612b9d565b9250506020612dbb85828601612bb2565b9150509250929050565b60008060408385031215612dd857600080fd5b6000612de685828601612b9d565b9250506020612df785828601612c45565b9150509250929050565b600060208284031215612e1357600080fd5b6000612e2184828501612bc7565b91505092915050565b600060208284031215612e3c57600080fd5b6000612e4a84828501612bdc565b91505092915050565b60008060408385031215612e6657600080fd5b6000612e7485828601612bdc565b9250506020612e8585828601612c45565b9150509250929050565b600060208284031215612ea157600080fd5b6000612eaf84828501612bf1565b91505092915050565b600060208284031215612eca57600080fd5b6000612ed884828501612c06565b91505092915050565b600060208284031215612ef357600080fd5b6000612f0184828501612c45565b91505092915050565b60008060408385031215612f1d57600080fd5b6000612f2b85828601612c45565b9250506020612f3c85828601612c45565b9150509250929050565b612f4f8161442e565b82525050565b612f5e81614440565b82525050565b612f6d8161444c565b82525050565b612f84612f7f8261444c565b614576565b82525050565b6000612f958261429f565b612f9f81856142b5565b9350612faf8185602086016144c8565b612fb881614677565b840191505092915050565b6000612fce826142aa565b612fd881856142c6565b9350612fe88185602086016144c8565b612ff181614677565b840191505092915050565b6000613007826142aa565b61301181856142d7565b93506130218185602086016144c8565b80840191505092915050565b6000815461303a816144fb565b61304481866142d7565b9450600182166000811461305f5760018114613070576130a3565b60ff198316865281860193506130a3565b6130798561428a565b60005b8381101561309b5781548189015260018201915060208101905061307c565b838801955050505b50505092915050565b60006130b96016836142c6565b91507f5761697420666f7220436861696e6c696e6b20565246000000000000000000006000830152602082019050919050565b60006130f96009836142d7565b91507f206865696768743d2700000000000000000000000000000000000000000000006000830152600982019050919050565b60006131396032836142c6565b91507f4552433732313a207472616e7366657220746f206e6f6e20455243373231526560008301527f63656976657220696d706c656d656e74657200000000000000000000000000006020830152604082019050919050565b600061319f601c836142c6565b91507f4552433732313a20746f6b656e20616c7265616479206d696e746564000000006000830152602082019050919050565b60006131df6016836142c6565b91507f546f6b656e2055524920616c72656164792073657421000000000000000000006000830152602082019050919050565b600061321f600a836142d7565b91507f27207374726f6b653d27000000000000000000000000000000000000000000006000830152600a82019050919050565b600061325f6024836142c6565b91507f4552433732313a207472616e7366657220746f20746865207a65726f2061646460008301527f72657373000000000000000000000000000000000000000000000000000000006020830152604082019050919050565b60006132c56019836142c6565b91507f4552433732313a20617070726f766520746f2063616c6c6572000000000000006000830152602082019050919050565b60006133056006836142d7565b91507f272079323d2700000000000000000000000000000000000000000000000000006000830152600682019050919050565b6000613345602c836142c6565b91507f4552433732313a206f70657261746f7220717565727920666f72206e6f6e657860008301527f697374656e7420746f6b656e00000000000000000000000000000000000000006020830152604082019050919050565b60006133ab6003836142d7565b91507f272f3e00000000000000000000000000000000000000000000000000000000006000830152600382019050919050565b60006133eb6038836142c6565b91507f4552433732313a20617070726f76652063616c6c6572206973206e6f74206f7760008301527f6e6572206e6f7220617070726f76656420666f7220616c6c00000000000000006020830152604082019050919050565b6000613451602a836142c6565b91507f4552433732313a2062616c616e636520717565727920666f7220746865207a6560008301527f726f2061646472657373000000000000000000000000000000000000000000006020830152604082019050919050565b60006134b76029836142c6565b91507f4552433732313a206f776e657220717565727920666f72206e6f6e657869737460008301527f656e7420746f6b656e00000000000000000000000000000000000000000000006020830152604082019050919050565b600061351d602e836142c6565b91507f45524337323155524953746f726167653a2055524920736574206f66206e6f6e60008301527f6578697374656e7420746f6b656e0000000000000000000000000000000000006020830152604082019050919050565b60006135836002836142d7565b91507f227d0000000000000000000000000000000000000000000000000000000000006000830152600282019050919050565b60006135c36027836142d7565b91507f3c73766720786d6c6e733d27687474703a2f2f7777772e77332e6f72672f323060008301527f30302f73766727000000000000000000000000000000000000000000000000006020830152602782019050919050565b6000613629600a836142d7565b91507f3c6c696e652078313d27000000000000000000000000000000000000000000006000830152600a82019050919050565b60006136696020836142c6565b91507f4552433732313a206d696e7420746f20746865207a65726f20616464726573736000830152602082019050919050565b60006136a96031836142c6565b91507f45524337323155524953746f726167653a2055524920717565727920666f722060008301527f6e6f6e6578697374656e7420746f6b656e0000000000000000000000000000006020830152604082019050919050565b600061370f6055836142d7565b91507f7b226e616d65223a20226c696e6573222c20226465736372697074696f6e223a60008301527f2022416e204e4654206261736564206f6e2053564721222c202261747472696260208301527f75746573223a2022222c2022696d616765223a202200000000000000000000006040830152605582019050919050565b600061379b602c836142c6565b91507f4552433732313a20617070726f76656420717565727920666f72206e6f6e657860008301527f697374656e7420746f6b656e00000000000000000000000000000000000000006020830152604082019050919050565b60006138016029836142c6565b91507f4552433732313a207472616e73666572206f6620746f6b656e2074686174206960008301527f73206e6f74206f776e00000000000000000000000000000000000000000000006020830152604082019050919050565b6000613867602f836142c6565b91507f4552433732314d657461646174613a2055524920717565727920666f72206e6f60008301527f6e6578697374656e7420746f6b656e00000000000000000000000000000000006020830152604082019050919050565b60006138cd601f836142c6565b91507f4f6e6c7920565246436f6f7264696e61746f722063616e2066756c66696c6c006000830152602082019050919050565b600061390d6006836142d7565b91507f272079313d2700000000000000000000000000000000000000000000000000006000830152600682019050919050565b600061394d6021836142c6565b91507f4552433732313a20617070726f76616c20746f2063757272656e74206f776e6560008301527f72000000000000000000000000000000000000000000000000000000000000006020830152604082019050919050565b60006139b3601d836142d7565b91507f646174613a6170706c69636174696f6e2f6a736f6e3b6261736536342c0000006000830152601d82019050919050565b60006139f36031836142c6565b91507f4552433732313a207472616e736665722063616c6c6572206973206e6f74206f60008301527f776e6572206e6f7220617070726f7665640000000000000000000000000000006020830152604082019050919050565b6000613a596002836142d7565b91507f273e0000000000000000000000000000000000000000000000000000000000006000830152600282019050919050565b6000613a996006836142d7565b91507f272078323d2700000000000000000000000000000000000000000000000000006000830152600682019050919050565b6000613ad96006836142d7565b91507f3c2f7376673e00000000000000000000000000000000000000000000000000006000830152600682019050919050565b6000613b196009836142d7565b91507f272077696474683d2700000000000000000000000000000000000000000000006000830152600982019050919050565b6000613b59601d836142c6565b91507f546f6b656e2049442067726561746572207468616e20636f756e7465720000006000830152602082019050919050565b613b95816144a2565b82525050565b613bac613ba7826144a2565b614580565b82525050565b6000613bbe8285612f73565b602082019150613bce8284613b9b565b6020820191508190509392505050565b6000613bea8284612ffc565b915081905092915050565b6000613c018285612ffc565b9150613c0d8284612ffc565b91508190509392505050565b6000613c258284612ffc565b9150613c3082613acc565b915081905092915050565b6000613c46826135b6565b9150613c51826130ec565b9150613c5d8285612ffc565b9150613c6882613b0c565b9150613c748284612ffc565b9150613c7f82613a4c565b91508190509392505050565b6000613c968261361c565b9150613ca28288612ffc565b9150613cad82613900565b9150613cb98287612ffc565b9150613cc482613a8c565b9150613cd08286612ffc565b9150613cdb826132f8565b9150613ce78285612ffc565b9150613cf282613212565b9150613cfe828461302d565b9150613d098261339e565b91508190509695505050505050565b6000613d2382613702565b9150613d2f8284612ffc565b9150613d3a82613576565b915081905092915050565b6000613d50826139a6565b9150613d5c8284612ffc565b915081905092915050565b6000613d738285613b9b565b602082019150613d838284613b9b565b6020820191508190509392505050565b6000602082019050613da86000830184612f46565b92915050565b6000608082019050613dc36000830187612f46565b613dd06020830186612f46565b613ddd6040830185613b8c565b8181036060830152613def8184612f8a565b905095945050505050565b6000606082019050613e0f6000830186612f46565b613e1c6020830185613b8c565b8181036040830152613e2e8184612f8a565b9050949350505050565b6000602082019050613e4d6000830184612f55565b92915050565b6000602082019050613e686000830184612f64565b92915050565b6000604082019050613e836000830185612f64565b613e906020830184613b8c565b9392505050565b6000608082019050613eac6000830187612f64565b613eb96020830186613b8c565b613ec66040830185612f46565b613ed36060830184613b8c565b95945050505050565b60006020820190508181036000830152613ef68184612fc3565b905092915050565b60006040820190508181036000830152613f188185612fc3565b90508181036020830152613f2c8184612fc3565b90509392505050565b60006040820190508181036000830152613f4f8185612fc3565b9050613f5e6020830184613b8c565b9392505050565b60006020820190508181036000830152613f7e816130ac565b9050919050565b60006020820190508181036000830152613f9e8161312c565b9050919050565b60006020820190508181036000830152613fbe81613192565b9050919050565b60006020820190508181036000830152613fde816131d2565b9050919050565b60006020820190508181036000830152613ffe81613252565b9050919050565b6000602082019050818103600083015261401e816132b8565b9050919050565b6000602082019050818103600083015261403e81613338565b9050919050565b6000602082019050818103600083015261405e816133de565b9050919050565b6000602082019050818103600083015261407e81613444565b9050919050565b6000602082019050818103600083015261409e816134aa565b9050919050565b600060208201905081810360008301526140be81613510565b9050919050565b600060208201905081810360008301526140de8161365c565b9050919050565b600060208201905081810360008301526140fe8161369c565b9050919050565b6000602082019050818103600083015261411e8161378e565b9050919050565b6000602082019050818103600083015261413e816137f4565b9050919050565b6000602082019050818103600083015261415e8161385a565b9050919050565b6000602082019050818103600083015261417e816138c0565b9050919050565b6000602082019050818103600083015261419e81613940565b9050919050565b600060208201905081810360008301526141be816139e6565b9050919050565b600060208201905081810360008301526141de81613b4c565b9050919050565b60006020820190506141fa6000830184613b8c565b92915050565b60006040820190506142156000830185613b8c565b6142226020830184613b8c565b9392505050565b6000604051905081810181811067ffffffffffffffff821117156142505761424f614648565b5b8060405250919050565b600067ffffffffffffffff82111561427557614274614648565b5b601f19601f8301169050602081019050919050565b60008190508160005260206000209050919050565b600081519050919050565b600081519050919050565b600082825260208201905092915050565b600082825260208201905092915050565b600081905092915050565b60006142ed826144a2565b91506142f8836144a2565b9250827fffffffffffffffffffffffffffffffffffffffffffffffffffffffffffffffff0382111561432d5761432c6145bb565b5b828201905092915050565b6000614343826144ac565b915061434e836144ac565b92508260ff03821115614364576143636145bb565b5b828201905092915050565b600061437a826144a2565b9150614385836144a2565b925082614395576143946145ea565b5b828204905092915050565b60006143ab826144a2565b91506143b6836144a2565b9250817fffffffffffffffffffffffffffffffffffffffffffffffffffffffffffffffff04831182151516156143ef576143ee6145bb565b5b828202905092915050565b6000614405826144a2565b9150614410836144a2565b925082821015614423576144226145bb565b5b828203905092915050565b600061443982614482565b9050919050565b60008115159050919050565b6000819050919050565b60007fffffffff0000000000000000000000000000000000000000000000000000000082169050919050565b600073ffffffffffffffffffffffffffffffffffffffff82169050919050565b6000819050919050565b600060ff82169050919050565b82818337600083830152505050565b60005b838110156144e65780820151818401526020810190506144cb565b838111156144f5576000848401525b50505050565b6000600282049050600182168061451357607f821691505b6020821081141561452757614526614619565b5b50919050565b6000614538826144a2565b91507fffffffffffffffffffffffffffffffffffffffffffffffffffffffffffffffff82141561456b5761456a6145bb565b5b600182019050919050565b6000819050919050565b6000819050919050565b6000614595826144a2565b91506145a0836144a2565b9250826145b0576145af6145ea565b5b828206905092915050565b7f4e487b7100000000000000000000000000000000000000000000000000000000600052601160045260246000fd5b7f4e487b7100000000000000000000000000000000000000000000000000000000600052601260045260246000fd5b7f4e487b7100000000000000000000000000000000000000000000000000000000600052602260045260246000fd5b7f4e487b7100000000000000000000000000000000000000000000000000000000600052604160045260246000fd5b6000601f19601f8301169050919050565b6146918161442e565b811461469c57600080fd5b50565b6146a881614440565b81146146b357600080fd5b50565b6146bf8161444c565b81146146ca57600080fd5b50565b6146d681614456565b81146146e157600080fd5b50565b6146ed816144a2565b81146146f857600080fd5b5056fe4142434445464748494a4b4c4d4e4f505152535455565758595a6162636465666768696a6b6c6d6e6f707172737475767778797a303132333435363738392b2fa2646970667358221220fba5f1656c30074cc390b16ae39c535450e844167cc32d16d41b11f5c133711e64736f6c63430008000033",
  "devdoc": {
    "kind": "dev",
    "methods": {
      "approve(address,uint256)": {
        "details": "See {IERC721-approve}."
      },
      "balanceOf(address)": {
        "details": "See {IERC721-balanceOf}."
      },
      "getApproved(uint256)": {
        "details": "See {IERC721-getApproved}."
      },
      "isApprovedForAll(address,address)": {
        "details": "See {IERC721-isApprovedForAll}."
      },
      "name()": {
        "details": "See {IERC721Metadata-name}."
      },
      "ownerOf(uint256)": {
        "details": "See {IERC721-ownerOf}."
      },
      "safeTransferFrom(address,address,uint256)": {
        "details": "See {IERC721-safeTransferFrom}."
      },
      "safeTransferFrom(address,address,uint256,bytes)": {
        "details": "See {IERC721-safeTransferFrom}."
      },
      "setApprovalForAll(address,bool)": {
        "details": "See {IERC721-setApprovalForAll}."
      },
      "supportsInterface(bytes4)": {
        "details": "See {IERC165-supportsInterface}."
      },
      "symbol()": {
        "details": "See {IERC721Metadata-symbol}."
      },
      "tokenURI(uint256)": {
        "details": "See {IERC721Metadata-tokenURI}."
      },
      "transferFrom(address,address,uint256)": {
        "details": "See {IERC721-transferFrom}."
      }
    },
    "version": 1
  },
  "userdoc": {
    "kind": "user",
    "methods": {},
    "version": 1
  },
  "storageLayout": {
    "storage": [
      {
        "astId": 291,
        "contract": "contracts/RandomSVG.sol:RandomSVG",
        "label": "_name",
        "offset": 0,
        "slot": "0",
        "type": "t_string_storage"
      },
      {
        "astId": 293,
        "contract": "contracts/RandomSVG.sol:RandomSVG",
        "label": "_symbol",
        "offset": 0,
        "slot": "1",
        "type": "t_string_storage"
      },
      {
        "astId": 297,
        "contract": "contracts/RandomSVG.sol:RandomSVG",
        "label": "_owners",
        "offset": 0,
        "slot": "2",
        "type": "t_mapping(t_uint256,t_address)"
      },
      {
        "astId": 301,
        "contract": "contracts/RandomSVG.sol:RandomSVG",
        "label": "_balances",
        "offset": 0,
        "slot": "3",
        "type": "t_mapping(t_address,t_uint256)"
      },
      {
        "astId": 305,
        "contract": "contracts/RandomSVG.sol:RandomSVG",
        "label": "_tokenApprovals",
        "offset": 0,
        "slot": "4",
        "type": "t_mapping(t_uint256,t_address)"
      },
      {
        "astId": 311,
        "contract": "contracts/RandomSVG.sol:RandomSVG",
        "label": "_operatorApprovals",
        "offset": 0,
        "slot": "5",
        "type": "t_mapping(t_address,t_mapping(t_address,t_bool))"
      },
      {
        "astId": 1243,
        "contract": "contracts/RandomSVG.sol:RandomSVG",
        "label": "_tokenURIs",
        "offset": 0,
        "slot": "6",
        "type": "t_mapping(t_uint256,t_string_storage)"
      },
      {
        "astId": 79,
        "contract": "contracts/RandomSVG.sol:RandomSVG",
        "label": "nonces",
        "offset": 0,
        "slot": "7",
        "type": "t_mapping(t_bytes32,t_uint256)"
      },
      {
        "astId": 2070,
        "contract": "contracts/RandomSVG.sol:RandomSVG",
        "label": "keyHash",
        "offset": 0,
        "slot": "8",
        "type": "t_bytes32"
      },
      {
        "astId": 2072,
        "contract": "contracts/RandomSVG.sol:RandomSVG",
        "label": "fee",
        "offset": 0,
        "slot": "9",
        "type": "t_uint256"
      },
      {
        "astId": 2074,
        "contract": "contracts/RandomSVG.sol:RandomSVG",
        "label": "tokenCounter",
        "offset": 0,
        "slot": "10",
        "type": "t_uint256"
      },
      {
        "astId": 2076,
        "contract": "contracts/RandomSVG.sol:RandomSVG",
        "label": "maxLines",
        "offset": 0,
        "slot": "11",
        "type": "t_uint256"
      },
      {
        "astId": 2078,
        "contract": "contracts/RandomSVG.sol:RandomSVG",
        "label": "size",
        "offset": 0,
        "slot": "12",
        "type": "t_uint256"
      },
      {
        "astId": 2081,
        "contract": "contracts/RandomSVG.sol:RandomSVG",
        "label": "colors",
        "offset": 0,
        "slot": "13",
        "type": "t_array(t_string_storage)dyn_storage"
      },
      {
        "astId": 2085,
        "contract": "contracts/RandomSVG.sol:RandomSVG",
        "label": "requestIdToSender",
        "offset": 0,
        "slot": "14",
        "type": "t_mapping(t_bytes32,t_address)"
      },
      {
        "astId": 2089,
        "contract": "contracts/RandomSVG.sol:RandomSVG",
        "label": "requestIdToTokenId",
        "offset": 0,
        "slot": "15",
        "type": "t_mapping(t_bytes32,t_uint256)"
      },
      {
        "astId": 2093,
        "contract": "contracts/RandomSVG.sol:RandomSVG",
        "label": "tokenIdToRandomNumber",
        "offset": 0,
        "slot": "16",
        "type": "t_mapping(t_uint256,t_uint256)"
      }
    ],
    "types": {
      "t_address": {
        "encoding": "inplace",
        "label": "address",
        "numberOfBytes": "20"
      },
      "t_array(t_string_storage)dyn_storage": {
        "base": "t_string_storage",
        "encoding": "dynamic_array",
        "label": "string[]",
        "numberOfBytes": "32"
      },
      "t_bool": {
        "encoding": "inplace",
        "label": "bool",
        "numberOfBytes": "1"
      },
      "t_bytes32": {
        "encoding": "inplace",
        "label": "bytes32",
        "numberOfBytes": "32"
      },
      "t_mapping(t_address,t_bool)": {
        "encoding": "mapping",
        "key": "t_address",
        "label": "mapping(address => bool)",
        "numberOfBytes": "32",
        "value": "t_bool"
      },
      "t_mapping(t_address,t_mapping(t_address,t_bool))": {
        "encoding": "mapping",
        "key": "t_address",
        "label": "mapping(address => mapping(address => bool))",
        "numberOfBytes": "32",
        "value": "t_mapping(t_address,t_bool)"
      },
      "t_mapping(t_address,t_uint256)": {
        "encoding": "mapping",
        "key": "t_address",
        "label": "mapping(address => uint256)",
        "numberOfBytes": "32",
        "value": "t_uint256"
      },
      "t_mapping(t_bytes32,t_address)": {
        "encoding": "mapping",
        "key": "t_bytes32",
        "label": "mapping(bytes32 => address)",
        "numberOfBytes": "32",
        "value": "t_address"
      },
      "t_mapping(t_bytes32,t_uint256)": {
        "encoding": "mapping",
        "key": "t_bytes32",
        "label": "mapping(bytes32 => uint256)",
        "numberOfBytes": "32",
        "value": "t_uint256"
      },
      "t_mapping(t_uint256,t_address)": {
        "encoding": "mapping",
        "key": "t_uint256",
        "label": "mapping(uint256 => address)",
        "numberOfBytes": "32",
        "value": "t_address"
      },
      "t_mapping(t_uint256,t_string_storage)": {
        "encoding": "mapping",
        "key": "t_uint256",
        "label": "mapping(uint256 => string)",
        "numberOfBytes": "32",
        "value": "t_string_storage"
      },
      "t_mapping(t_uint256,t_uint256)": {
        "encoding": "mapping",
        "key": "t_uint256",
        "label": "mapping(uint256 => uint256)",
        "numberOfBytes": "32",
        "value": "t_uint256"
      },
      "t_string_storage": {
        "encoding": "bytes",
        "label": "string",
        "numberOfBytes": "32"
      },
      "t_uint256": {
        "encoding": "inplace",
        "label": "uint256",
        "numberOfBytes": "32"
      }
    }
  }
}