{
  "address": "0xE2cC83d78e27b72a776812DE3687AACCe0dB23BC",
  "abi": [
    {
      "inputs": [],
      "stateMutability": "nonpayable",
      "type": "constructor"
    },
    {
      "anonymous": false,
      "inputs": [
        {
          "indexed": true,
          "internalType": "address",
          "name": "owner",
          "type": "address"
        },
        {
          "indexed": true,
          "internalType": "address",
          "name": "approved",
          "type": "address"
        },
        {
          "indexed": true,
          "internalType": "uint256",
          "name": "tokenId",
          "type": "uint256"
        }
      ],
      "name": "Approval",
      "type": "event"
    },
    {
      "anonymous": false,
      "inputs": [
        {
          "indexed": true,
          "internalType": "address",
          "name": "owner",
          "type": "address"
        },
        {
          "indexed": true,
          "internalType": "address",
          "name": "operator",
          "type": "address"
        },
        {
          "indexed": false,
          "internalType": "bool",
          "name": "approved",
          "type": "bool"
        }
      ],
      "name": "ApprovalForAll",
      "type": "event"
    },
    {
      "anonymous": false,
      "inputs": [
        {
          "indexed": true,
          "internalType": "uint256",
          "name": "tokenId",
          "type": "uint256"
        },
        {
          "indexed": false,
          "internalType": "string",
          "name": "tokenURI",
          "type": "string"
        }
      ],
      "name": "CreatedNFT",
      "type": "event"
    },
    {
      "anonymous": false,
      "inputs": [
        {
          "indexed": true,
          "internalType": "address",
          "name": "from",
          "type": "address"
        },
        {
          "indexed": true,
          "internalType": "address",
          "name": "to",
          "type": "address"
        },
        {
          "indexed": true,
          "internalType": "uint256",
          "name": "tokenId",
          "type": "uint256"
        }
      ],
      "name": "Transfer",
      "type": "event"
    },
    {
      "inputs": [
        {
          "internalType": "address",
          "name": "to",
          "type": "address"
        },
        {
          "internalType": "uint256",
          "name": "tokenId",
          "type": "uint256"
        }
      ],
      "name": "approve",
      "outputs": [],
      "stateMutability": "nonpayable",
      "type": "function"
    },
    {
      "inputs": [
        {
          "internalType": "address",
          "name": "owner",
          "type": "address"
        }
      ],
      "name": "balanceOf",
      "outputs": [
        {
          "internalType": "uint256",
          "name": "",
          "type": "uint256"
        }
      ],
      "stateMutability": "view",
      "type": "function"
    },
    {
      "inputs": [
        {
          "internalType": "string",
          "name": "svg",
          "type": "string"
        }
      ],
      "name": "create",
      "outputs": [],
      "stateMutability": "nonpayable",
      "type": "function"
    },
    {
      "inputs": [
        {
          "internalType": "uint256",
          "name": "tokenId",
          "type": "uint256"
        }
      ],
      "name": "getApproved",
      "outputs": [
        {
          "internalType": "address",
          "name": "",
          "type": "address"
        }
      ],
      "stateMutability": "view",
      "type": "function"
    },
    {
      "inputs": [
        {
          "internalType": "address",
          "name": "owner",
          "type": "address"
        },
        {
          "internalType": "address",
          "name": "operator",
          "type": "address"
        }
      ],
      "name": "isApprovedForAll",
      "outputs": [
        {
          "internalType": "bool",
          "name": "",
          "type": "bool"
        }
      ],
      "stateMutability": "view",
      "type": "function"
    },
    {
      "inputs": [],
      "name": "name",
      "outputs": [
        {
          "internalType": "string",
          "name": "",
          "type": "string"
        }
      ],
      "stateMutability": "view",
      "type": "function"
    },
    {
      "inputs": [
        {
          "internalType": "uint256",
          "name": "tokenId",
          "type": "uint256"
        }
      ],
      "name": "ownerOf",
      "outputs": [
        {
          "internalType": "address",
          "name": "",
          "type": "address"
        }
      ],
      "stateMutability": "view",
      "type": "function"
    },
    {
      "inputs": [
        {
          "internalType": "address",
          "name": "from",
          "type": "address"
        },
        {
          "internalType": "address",
          "name": "to",
          "type": "address"
        },
        {
          "internalType": "uint256",
          "name": "tokenId",
          "type": "uint256"
        }
      ],
      "name": "safeTransferFrom",
      "outputs": [],
      "stateMutability": "nonpayable",
      "type": "function"
    },
    {
      "inputs": [
        {
          "internalType": "address",
          "name": "from",
          "type": "address"
        },
        {
          "internalType": "address",
          "name": "to",
          "type": "address"
        },
        {
          "internalType": "uint256",
          "name": "tokenId",
          "type": "uint256"
        },
        {
          "internalType": "bytes",
          "name": "_data",
          "type": "bytes"
        }
      ],
      "name": "safeTransferFrom",
      "outputs": [],
      "stateMutability": "nonpayable",
      "type": "function"
    },
    {
      "inputs": [
        {
          "internalType": "address",
          "name": "operator",
          "type": "address"
        },
        {
          "internalType": "bool",
          "name": "approved",
          "type": "bool"
        }
      ],
      "name": "setApprovalForAll",
      "outputs": [],
      "stateMutability": "nonpayable",
      "type": "function"
    },
    {
      "inputs": [
        {
          "internalType": "bytes4",
          "name": "interfaceId",
          "type": "bytes4"
        }
      ],
      "name": "supportsInterface",
      "outputs": [
        {
          "internalType": "bool",
          "name": "",
          "type": "bool"
        }
      ],
      "stateMutability": "view",
      "type": "function"
    },
    {
      "inputs": [],
      "name": "symbol",
      "outputs": [
        {
          "internalType": "string",
          "name": "",
          "type": "string"
        }
      ],
      "stateMutability": "view",
      "type": "function"
    },
    {
      "inputs": [],
      "name": "tokenCounter",
      "outputs": [
        {
          "internalType": "uint256",
          "name": "",
          "type": "uint256"
        }
      ],
      "stateMutability": "view",
      "type": "function"
    },
    {
      "inputs": [
        {
          "internalType": "uint256",
          "name": "tokenId",
          "type": "uint256"
        }
      ],
      "name": "tokenURI",
      "outputs": [
        {
          "internalType": "string",
          "name": "",
          "type": "string"
        }
      ],
      "stateMutability": "view",
      "type": "function"
    },
    {
      "inputs": [
        {
          "internalType": "address",
          "name": "from",
          "type": "address"
        },
        {
          "internalType": "address",
          "name": "to",
          "type": "address"
        },
        {
          "internalType": "uint256",
          "name": "tokenId",
          "type": "uint256"
        }
      ],
      "name": "transferFrom",
      "outputs": [],
      "stateMutability": "nonpayable",
      "type": "function"
    }
  ],
  "transactionHash": "0xe21beb277566116cd0820bddf3f8b96e35bf98ce8f2bbc69d9e08540a5f89e0f",
  "args": [],
  "numDeployments": 1,
  "solcInputHash": "109921cfe77f33b5752ba3ee3440ff29",
  "bytecode": "0x60806040523480156200001157600080fd5b506040518060400160405280600581526020017f6c696e65730000000000000000000000000000000000000000000000000000008152506040518060400160405280600481526020017f4c494e4500000000000000000000000000000000000000000000000000000000815250816000908051906020019062000096929190620000c0565b508060019080519060200190620000af929190620000c0565b5050506000600781905550620001d5565b828054620000ce9062000170565b90600052602060002090601f016020900481019282620000f257600085556200013e565b82601f106200010d57805160ff19168380011785556200013e565b828001600101855582156200013e579182015b828111156200013d57825182559160200191906001019062000120565b5b5090506200014d919062000151565b5090565b5b808211156200016c57600081600090555060010162000152565b5090565b600060028204905060018216806200018957607f821691505b60208210811415620001a0576200019f620001a6565b5b50919050565b7f4e487b7100000000000000000000000000000000000000000000000000000000600052602260045260246000fd5b612fc580620001e56000396000f3fe608060405234801561001057600080fd5b50600436106100f55760003560e01c806370a0823111610097578063b88d4fde11610066578063b88d4fde14610282578063c87b56dd1461029e578063d082e381146102ce578063e985e9c5146102ec576100f5565b806370a08231146101fc57806395d89b411461022c578063a22cb4651461024a578063b6a46b3b14610266576100f5565b8063095ea7b3116100d3578063095ea7b31461017857806323b872dd1461019457806342842e0e146101b05780636352211e146101cc576100f5565b806301ffc9a7146100fa57806306fdde031461012a578063081812fc14610148575b600080fd5b610114600480360381019061010f9190611f0c565b61031c565b6040516101219190612883565b60405180910390f35b6101326103fe565b60405161013f919061289e565b60405180910390f35b610162600480360381019061015d9190611f9f565b610490565b60405161016f919061281c565b60405180910390f35b610192600480360381019061018d9190611ed0565b610515565b005b6101ae60048036038101906101a99190611dca565b61062d565b005b6101ca60048036038101906101c59190611dca565b61068d565b005b6101e660048036038101906101e19190611f9f565b6106ad565b6040516101f3919061281c565b60405180910390f35b61021660048036038101906102119190611d65565b61075f565b6040516102239190612ac0565b60405180910390f35b610234610817565b604051610241919061289e565b60405180910390f35b610264600480360381019061025f9190611e94565b6108a9565b005b610280600480360381019061027b9190611f5e565b6108bf565b005b61029c60048036038101906102979190611e19565b61094a565b005b6102b860048036038101906102b39190611f9f565b6109ac565b6040516102c5919061289e565b60405180910390f35b6102d6610afe565b6040516102e39190612ac0565b60405180910390f35b61030660048036038101906103019190611d8e565b610b04565b6040516103139190612883565b60405180910390f35b60007f80ac58cd000000000000000000000000000000000000000000000000000000007bffffffffffffffffffffffffffffffffffffffffffffffffffffffff1916827bffffffffffffffffffffffffffffffffffffffffffffffffffffffff191614806103e757507f5b5e139f000000000000000000000000000000000000000000000000000000007bffffffffffffffffffffffffffffffffffffffffffffffffffffffff1916827bffffffffffffffffffffffffffffffffffffffffffffffffffffffff1916145b806103f757506103f682610b98565b5b9050919050565b60606000805461040d90612d7a565b80601f016020809104026020016040519081016040528092919081815260200182805461043990612d7a565b80156104865780601f1061045b57610100808354040283529160200191610486565b820191906000526020600020905b81548152906001019060200180831161046957829003601f168201915b5050505050905090565b600061049b82610c02565b6104da576040517f08c379a00000000000000000000000000000000000000000000000000000000081526004016104d190612a20565b60405180910390fd5b6004600083815260200190815260200160002060009054906101000a900473ffffffffffffffffffffffffffffffffffffffff169050919050565b6000610520826106ad565b90508073ffffffffffffffffffffffffffffffffffffffff168373ffffffffffffffffffffffffffffffffffffffff161415610591576040517f08c379a000000000000000000000000000000000000000000000000000000000815260040161058890612a80565b60405180910390fd5b8073ffffffffffffffffffffffffffffffffffffffff166105b0610c6e565b73ffffffffffffffffffffffffffffffffffffffff1614806105df57506105de816105d9610c6e565b610b04565b5b61061e576040517f08c379a000000000000000000000000000000000000000000000000000000000815260040161061590612960565b60405180910390fd5b6106288383610c76565b505050565b61063e610638610c6e565b82610d2f565b61067d576040517f08c379a000000000000000000000000000000000000000000000000000000000815260040161067490612aa0565b60405180910390fd5b610688838383610e0d565b505050565b6106a88383836040518060200160405280600081525061094a565b505050565b6000806002600084815260200190815260200160002060009054906101000a900473ffffffffffffffffffffffffffffffffffffffff169050600073ffffffffffffffffffffffffffffffffffffffff168173ffffffffffffffffffffffffffffffffffffffff161415610756576040517f08c379a000000000000000000000000000000000000000000000000000000000815260040161074d906129a0565b60405180910390fd5b80915050919050565b60008073ffffffffffffffffffffffffffffffffffffffff168273ffffffffffffffffffffffffffffffffffffffff1614156107d0576040517f08c379a00000000000000000000000000000000000000000000000000000000081526004016107c790612980565b60405180910390fd5b600360008373ffffffffffffffffffffffffffffffffffffffff1673ffffffffffffffffffffffffffffffffffffffff168152602001908152602001600020549050919050565b60606001805461082690612d7a565b80601f016020809104026020016040519081016040528092919081815260200182805461085290612d7a565b801561089f5780601f106108745761010080835404028352916020019161089f565b820191906000526020600020905b81548152906001019060200180831161088257829003601f168201915b5050505050905090565b6108bb6108b4610c6e565b8383611069565b5050565b6108cb336007546111d6565b60006108d6826111f4565b905060006108e382611287565b90506108f1600754826112d7565b6007547fb5a8d8cf5d01b5006e471421ba7da032446e2a82412342ed548b7aeed0ea9b6982604051610923919061289e565b60405180910390a260016007600082825461093e9190612baf565b92505081905550505050565b61095b610955610c6e565b83610d2f565b61099a576040517f08c379a000000000000000000000000000000000000000000000000000000000815260040161099190612aa0565b60405180910390fd5b6109a68484848461134b565b50505050565b60606109b782610c02565b6109f6576040517f08c379a00000000000000000000000000000000000000000000000000000000081526004016109ed90612a00565b60405180910390fd5b6000600660008481526020019081526020016000208054610a1690612d7a565b80601f0160208091040260200160405190810160405280929190818152602001828054610a4290612d7a565b8015610a8f5780601f10610a6457610100808354040283529160200191610a8f565b820191906000526020600020905b815481529060010190602001808311610a7257829003601f168201915b505050505090506000610aa06113a7565b9050600081511415610ab6578192505050610af9565b600082511115610aeb578082604051602001610ad39291906127a9565b60405160208183030381529060405292505050610af9565b610af4846113be565b925050505b919050565b60075481565b6000600560008473ffffffffffffffffffffffffffffffffffffffff1673ffffffffffffffffffffffffffffffffffffffff16815260200190815260200160002060008373ffffffffffffffffffffffffffffffffffffffff1673ffffffffffffffffffffffffffffffffffffffff16815260200190815260200160002060009054906101000a900460ff16905092915050565b60007f01ffc9a7000000000000000000000000000000000000000000000000000000007bffffffffffffffffffffffffffffffffffffffffffffffffffffffff1916827bffffffffffffffffffffffffffffffffffffffffffffffffffffffff1916149050919050565b60008073ffffffffffffffffffffffffffffffffffffffff166002600084815260200190815260200160002060009054906101000a900473ffffffffffffffffffffffffffffffffffffffff1673ffffffffffffffffffffffffffffffffffffffff1614159050919050565b600033905090565b816004600083815260200190815260200160002060006101000a81548173ffffffffffffffffffffffffffffffffffffffff021916908373ffffffffffffffffffffffffffffffffffffffff160217905550808273ffffffffffffffffffffffffffffffffffffffff16610ce9836106ad565b73ffffffffffffffffffffffffffffffffffffffff167f8c5be1e5ebec7d5bd14f71427d1e84f3dd0314c0f7b2291e5b200ac8c7c3b92560405160405180910390a45050565b6000610d3a82610c02565b610d79576040517f08c379a0000000000000000000000000000000000000000000000000000000008152600401610d7090612940565b60405180910390fd5b6000610d84836106ad565b90508073ffffffffffffffffffffffffffffffffffffffff168473ffffffffffffffffffffffffffffffffffffffff161480610df357508373ffffffffffffffffffffffffffffffffffffffff16610ddb84610490565b73ffffffffffffffffffffffffffffffffffffffff16145b80610e045750610e038185610b04565b5b91505092915050565b8273ffffffffffffffffffffffffffffffffffffffff16610e2d826106ad565b73ffffffffffffffffffffffffffffffffffffffff1614610e83576040517f08c379a0000000000000000000000000000000000000000000000000000000008152600401610e7a90612a40565b60405180910390fd5b600073ffffffffffffffffffffffffffffffffffffffff168273ffffffffffffffffffffffffffffffffffffffff161415610ef3576040517f08c379a0000000000000000000000000000000000000000000000000000000008152600401610eea90612900565b60405180910390fd5b610efe838383611465565b610f09600082610c76565b6001600360008573ffffffffffffffffffffffffffffffffffffffff1673ffffffffffffffffffffffffffffffffffffffff1681526020019081526020016000206000828254610f599190612c90565b925050819055506001600360008473ffffffffffffffffffffffffffffffffffffffff1673ffffffffffffffffffffffffffffffffffffffff1681526020019081526020016000206000828254610fb09190612baf565b92505081905550816002600083815260200190815260200160002060006101000a81548173ffffffffffffffffffffffffffffffffffffffff021916908373ffffffffffffffffffffffffffffffffffffffff160217905550808273ffffffffffffffffffffffffffffffffffffffff168473ffffffffffffffffffffffffffffffffffffffff167fddf252ad1be2c89b69c2b068fc378daa952ba7f163c4a11628f55a4df523b3ef60405160405180910390a4505050565b8173ffffffffffffffffffffffffffffffffffffffff168373ffffffffffffffffffffffffffffffffffffffff1614156110d8576040517f08c379a00000000000000000000000000000000000000000000000000000000081526004016110cf90612920565b60405180910390fd5b80600560008573ffffffffffffffffffffffffffffffffffffffff1673ffffffffffffffffffffffffffffffffffffffff16815260200190815260200160002060008473ffffffffffffffffffffffffffffffffffffffff1673ffffffffffffffffffffffffffffffffffffffff16815260200190815260200160002060006101000a81548160ff0219169083151502179055508173ffffffffffffffffffffffffffffffffffffffff168373ffffffffffffffffffffffffffffffffffffffff167f17307eab39ab6107e8899845ad3d59bd9653f200f220920489ca2b5937696c31836040516111c99190612883565b60405180910390a3505050565b6111f082826040518060200160405280600081525061146a565b5050565b606060006040518060400160405280601a81526020017f646174613a696d6167652f7376672b786d6c3b6261736536342c0000000000008152509050600061125a846040516020016112469190612792565b6040516020818303038152906040526114c5565b9050818160405160200161126f9291906127a9565b60405160208183030381529060405292505050919050565b60606112b18260405160200161129d91906127cd565b6040516020818303038152906040526114c5565b6040516020016112c191906127fa565b6040516020818303038152906040529050919050565b6112e082610c02565b61131f576040517f08c379a0000000000000000000000000000000000000000000000000000000008152600401611316906129c0565b60405180910390fd5b80600660008481526020019081526020016000209080519060200190611346929190611b89565b505050565b611356848484610e0d565b61136284848484611664565b6113a1576040517f08c379a0000000000000000000000000000000000000000000000000000000008152600401611398906128c0565b60405180910390fd5b50505050565b606060405180602001604052806000815250905090565b60606113c982610c02565b611408576040517f08c379a00000000000000000000000000000000000000000000000000000000081526004016113ff90612a60565b60405180910390fd5b60006114126113a7565b90506000815111611432576040518060200160405280600081525061145d565b8061143c846117fb565b60405160200161144d9291906127a9565b6040516020818303038152906040525b915050919050565b505050565b61147483836119a8565b6114816000848484611664565b6114c0576040517f08c379a00000000000000000000000000000000000000000000000000000000081526004016114b7906128c0565b60405180910390fd5b505050565b60606000825114156114e85760405180602001604052806000815250905061165f565b6000604051806060016040528060408152602001612f5060409139905060006003600285516115179190612baf565b6115219190612c05565b600461152d9190612c36565b9050600060208261153e9190612baf565b67ffffffffffffffff81111561157d577f4e487b7100000000000000000000000000000000000000000000000000000000600052604160045260246000fd5b6040519080825280601f01601f1916602001820160405280156115af5781602001600182028036833780820191505090505b509050818152600183018586518101602084015b8183101561161e576003830192508251603f8160121c168501518253600182019150603f81600c1c168501518253600182019150603f8160061c168501518253600182019150603f81168501518253600182019150506115c3565b600389510660018114611638576002811461164857611653565b613d3d60f01b6002830352611653565b603d60f81b60018303525b50505050508093505050505b919050565b60006116858473ffffffffffffffffffffffffffffffffffffffff16611b76565b156117ee578373ffffffffffffffffffffffffffffffffffffffff1663150b7a026116ae610c6e565b8786866040518563ffffffff1660e01b81526004016116d09493929190612837565b602060405180830381600087803b1580156116ea57600080fd5b505af192505050801561171b57506040513d601f19601f820116820180604052508101906117189190611f35565b60015b61179e573d806000811461174b576040519150601f19603f3d011682016040523d82523d6000602084013e611750565b606091505b50600081511415611796576040517f08c379a000000000000000000000000000000000000000000000000000000000815260040161178d906128c0565b60405180910390fd5b805181602001fd5b63150b7a0260e01b7bffffffffffffffffffffffffffffffffffffffffffffffffffffffff1916817bffffffffffffffffffffffffffffffffffffffffffffffffffffffff1916149150506117f3565b600190505b949350505050565b60606000821415611843576040518060400160405280600181526020017f300000000000000000000000000000000000000000000000000000000000000081525090506119a3565b600082905060005b6000821461187557808061185e90612dac565b915050600a8261186e9190612c05565b915061184b565b60008167ffffffffffffffff8111156118b7577f4e487b7100000000000000000000000000000000000000000000000000000000600052604160045260246000fd5b6040519080825280601f01601f1916602001820160405280156118e95781602001600182028036833780820191505090505b5090505b6000851461199c576001826119029190612c90565b9150600a856119119190612df5565b603061191d9190612baf565b60f81b818381518110611959577f4e487b7100000000000000000000000000000000000000000000000000000000600052603260045260246000fd5b60200101907effffffffffffffffffffffffffffffffffffffffffffffffffffffffffffff1916908160001a905350600a856119959190612c05565b94506118ed565b8093505050505b919050565b600073ffffffffffffffffffffffffffffffffffffffff168273ffffffffffffffffffffffffffffffffffffffff161415611a18576040517f08c379a0000000000000000000000000000000000000000000000000000000008152600401611a0f906129e0565b60405180910390fd5b611a2181610c02565b15611a61576040517f08c379a0000000000000000000000000000000000000000000000000000000008152600401611a58906128e0565b60405180910390fd5b611a6d60008383611465565b6001600360008473ffffffffffffffffffffffffffffffffffffffff1673ffffffffffffffffffffffffffffffffffffffff1681526020019081526020016000206000828254611abd9190612baf565b92505081905550816002600083815260200190815260200160002060006101000a81548173ffffffffffffffffffffffffffffffffffffffff021916908373ffffffffffffffffffffffffffffffffffffffff160217905550808273ffffffffffffffffffffffffffffffffffffffff16600073ffffffffffffffffffffffffffffffffffffffff167fddf252ad1be2c89b69c2b068fc378daa952ba7f163c4a11628f55a4df523b3ef60405160405180910390a45050565b600080823b905060008111915050919050565b828054611b9590612d7a565b90600052602060002090601f016020900481019282611bb75760008555611bfe565b82601f10611bd057805160ff1916838001178555611bfe565b82800160010185558215611bfe579182015b82811115611bfd578251825591602001919060010190611be2565b5b509050611c0b9190611c0f565b5090565b5b80821115611c28576000816000905550600101611c10565b5090565b6000611c3f611c3a84612b0c565b612adb565b905082815260208101848484011115611c5757600080fd5b611c62848285612d38565b509392505050565b6000611c7d611c7884612b3c565b612adb565b905082815260208101848484011115611c9557600080fd5b611ca0848285612d38565b509392505050565b600081359050611cb781612ef3565b92915050565b600081359050611ccc81612f0a565b92915050565b600081359050611ce181612f21565b92915050565b600081519050611cf681612f21565b92915050565b600082601f830112611d0d57600080fd5b8135611d1d848260208601611c2c565b91505092915050565b600082601f830112611d3757600080fd5b8135611d47848260208601611c6a565b91505092915050565b600081359050611d5f81612f38565b92915050565b600060208284031215611d7757600080fd5b6000611d8584828501611ca8565b91505092915050565b60008060408385031215611da157600080fd5b6000611daf85828601611ca8565b9250506020611dc085828601611ca8565b9150509250929050565b600080600060608486031215611ddf57600080fd5b6000611ded86828701611ca8565b9350506020611dfe86828701611ca8565b9250506040611e0f86828701611d50565b9150509250925092565b60008060008060808587031215611e2f57600080fd5b6000611e3d87828801611ca8565b9450506020611e4e87828801611ca8565b9350506040611e5f87828801611d50565b925050606085013567ffffffffffffffff811115611e7c57600080fd5b611e8887828801611cfc565b91505092959194509250565b60008060408385031215611ea757600080fd5b6000611eb585828601611ca8565b9250506020611ec685828601611cbd565b9150509250929050565b60008060408385031215611ee357600080fd5b6000611ef185828601611ca8565b9250506020611f0285828601611d50565b9150509250929050565b600060208284031215611f1e57600080fd5b6000611f2c84828501611cd2565b91505092915050565b600060208284031215611f4757600080fd5b6000611f5584828501611ce7565b91505092915050565b600060208284031215611f7057600080fd5b600082013567ffffffffffffffff811115611f8a57600080fd5b611f9684828501611d26565b91505092915050565b600060208284031215611fb157600080fd5b6000611fbf84828501611d50565b91505092915050565b611fd181612cc4565b82525050565b611fe081612cd6565b82525050565b6000611ff182612b6c565b611ffb8185612b82565b935061200b818560208601612d47565b61201481612ee2565b840191505092915050565b600061202a82612b77565b6120348185612b93565b9350612044818560208601612d47565b61204d81612ee2565b840191505092915050565b600061206382612b77565b61206d8185612ba4565b935061207d818560208601612d47565b80840191505092915050565b6000612096603283612b93565b91507f4552433732313a207472616e7366657220746f206e6f6e20455243373231526560008301527f63656976657220696d706c656d656e74657200000000000000000000000000006020830152604082019050919050565b60006120fc601c83612b93565b91507f4552433732313a20746f6b656e20616c7265616479206d696e746564000000006000830152602082019050919050565b600061213c602483612b93565b91507f4552433732313a207472616e7366657220746f20746865207a65726f2061646460008301527f72657373000000000000000000000000000000000000000000000000000000006020830152604082019050919050565b60006121a2601983612b93565b91507f4552433732313a20617070726f766520746f2063616c6c6572000000000000006000830152602082019050919050565b60006121e2602c83612b93565b91507f4552433732313a206f70657261746f7220717565727920666f72206e6f6e657860008301527f697374656e7420746f6b656e00000000000000000000000000000000000000006020830152604082019050919050565b6000612248603883612b93565b91507f4552433732313a20617070726f76652063616c6c6572206973206e6f74206f7760008301527f6e6572206e6f7220617070726f76656420666f7220616c6c00000000000000006020830152604082019050919050565b60006122ae602a83612b93565b91507f4552433732313a2062616c616e636520717565727920666f7220746865207a6560008301527f726f2061646472657373000000000000000000000000000000000000000000006020830152604082019050919050565b6000612314602983612b93565b91507f4552433732313a206f776e657220717565727920666f72206e6f6e657869737460008301527f656e7420746f6b656e00000000000000000000000000000000000000000000006020830152604082019050919050565b600061237a602e83612b93565b91507f45524337323155524953746f726167653a2055524920736574206f66206e6f6e60008301527f6578697374656e7420746f6b656e0000000000000000000000000000000000006020830152604082019050919050565b60006123e0600283612ba4565b91507f227d0000000000000000000000000000000000000000000000000000000000006000830152600282019050919050565b6000612420602083612b93565b91507f4552433732313a206d696e7420746f20746865207a65726f20616464726573736000830152602082019050919050565b6000612460603183612b93565b91507f45524337323155524953746f726167653a2055524920717565727920666f722060008301527f6e6f6e6578697374656e7420746f6b656e0000000000000000000000000000006020830152604082019050919050565b60006124c6605583612ba4565b91507f7b226e616d65223a20226c696e6573222c20226465736372697074696f6e223a60008301527f2022416e204e4654206261736564206f6e2053564721222c202261747472696260208301527f75746573223a2022222c2022696d616765223a202200000000000000000000006040830152605582019050919050565b6000612552602c83612b93565b91507f4552433732313a20617070726f76656420717565727920666f72206e6f6e657860008301527f697374656e7420746f6b656e00000000000000000000000000000000000000006020830152604082019050919050565b60006125b8602983612b93565b91507f4552433732313a207472616e73666572206f6620746f6b656e2074686174206960008301527f73206e6f74206f776e00000000000000000000000000000000000000000000006020830152604082019050919050565b600061261e602f83612b93565b91507f4552433732314d657461646174613a2055524920717565727920666f72206e6f60008301527f6e6578697374656e7420746f6b656e00000000000000000000000000000000006020830152604082019050919050565b6000612684602183612b93565b91507f4552433732313a20617070726f76616c20746f2063757272656e74206f776e6560008301527f72000000000000000000000000000000000000000000000000000000000000006020830152604082019050919050565b60006126ea601d83612ba4565b91507f646174613a6170706c69636174696f6e2f6a736f6e3b6261736536342c0000006000830152601d82019050919050565b600061272a603183612b93565b91507f4552433732313a207472616e736665722063616c6c6572206973206e6f74206f60008301527f776e6572206e6f7220617070726f7665640000000000000000000000000000006020830152604082019050919050565b61278c81612d2e565b82525050565b600061279e8284612058565b915081905092915050565b60006127b58285612058565b91506127c18284612058565b91508190509392505050565b60006127d8826124b9565b91506127e48284612058565b91506127ef826123d3565b915081905092915050565b6000612805826126dd565b91506128118284612058565b915081905092915050565b60006020820190506128316000830184611fc8565b92915050565b600060808201905061284c6000830187611fc8565b6128596020830186611fc8565b6128666040830185612783565b81810360608301526128788184611fe6565b905095945050505050565b60006020820190506128986000830184611fd7565b92915050565b600060208201905081810360008301526128b8818461201f565b905092915050565b600060208201905081810360008301526128d981612089565b9050919050565b600060208201905081810360008301526128f9816120ef565b9050919050565b600060208201905081810360008301526129198161212f565b9050919050565b6000602082019050818103600083015261293981612195565b9050919050565b60006020820190508181036000830152612959816121d5565b9050919050565b600060208201905081810360008301526129798161223b565b9050919050565b60006020820190508181036000830152612999816122a1565b9050919050565b600060208201905081810360008301526129b981612307565b9050919050565b600060208201905081810360008301526129d98161236d565b9050919050565b600060208201905081810360008301526129f981612413565b9050919050565b60006020820190508181036000830152612a1981612453565b9050919050565b60006020820190508181036000830152612a3981612545565b9050919050565b60006020820190508181036000830152612a59816125ab565b9050919050565b60006020820190508181036000830152612a7981612611565b9050919050565b60006020820190508181036000830152612a9981612677565b9050919050565b60006020820190508181036000830152612ab98161271d565b9050919050565b6000602082019050612ad56000830184612783565b92915050565b6000604051905081810181811067ffffffffffffffff82111715612b0257612b01612eb3565b5b8060405250919050565b600067ffffffffffffffff821115612b2757612b26612eb3565b5b601f19601f8301169050602081019050919050565b600067ffffffffffffffff821115612b5757612b56612eb3565b5b601f19601f8301169050602081019050919050565b600081519050919050565b600081519050919050565b600082825260208201905092915050565b600082825260208201905092915050565b600081905092915050565b6000612bba82612d2e565b9150612bc583612d2e565b9250827fffffffffffffffffffffffffffffffffffffffffffffffffffffffffffffffff03821115612bfa57612bf9612e26565b5b828201905092915050565b6000612c1082612d2e565b9150612c1b83612d2e565b925082612c2b57612c2a612e55565b5b828204905092915050565b6000612c4182612d2e565b9150612c4c83612d2e565b9250817fffffffffffffffffffffffffffffffffffffffffffffffffffffffffffffffff0483118215151615612c8557612c84612e26565b5b828202905092915050565b6000612c9b82612d2e565b9150612ca683612d2e565b925082821015612cb957612cb8612e26565b5b828203905092915050565b6000612ccf82612d0e565b9050919050565b60008115159050919050565b60007fffffffff0000000000000000000000000000000000000000000000000000000082169050919050565b600073ffffffffffffffffffffffffffffffffffffffff82169050919050565b6000819050919050565b82818337600083830152505050565b60005b83811015612d65578082015181840152602081019050612d4a565b83811115612d74576000848401525b50505050565b60006002820490506001821680612d9257607f821691505b60208210811415612da657612da5612e84565b5b50919050565b6000612db782612d2e565b91507fffffffffffffffffffffffffffffffffffffffffffffffffffffffffffffffff821415612dea57612de9612e26565b5b600182019050919050565b6000612e0082612d2e565b9150612e0b83612d2e565b925082612e1b57612e1a612e55565b5b828206905092915050565b7f4e487b7100000000000000000000000000000000000000000000000000000000600052601160045260246000fd5b7f4e487b7100000000000000000000000000000000000000000000000000000000600052601260045260246000fd5b7f4e487b7100000000000000000000000000000000000000000000000000000000600052602260045260246000fd5b7f4e487b7100000000000000000000000000000000000000000000000000000000600052604160045260246000fd5b6000601f19601f8301169050919050565b612efc81612cc4565b8114612f0757600080fd5b50565b612f1381612cd6565b8114612f1e57600080fd5b50565b612f2a81612ce2565b8114612f3557600080fd5b50565b612f4181612d2e565b8114612f4c57600080fd5b5056fe4142434445464748494a4b4c4d4e4f505152535455565758595a6162636465666768696a6b6c6d6e6f707172737475767778797a303132333435363738392b2fa2646970667358221220c577945909b123852b8c07f2c83fc9bb77ab0654035ec05e5b190403642b1af564736f6c63430008000033",
  "devdoc": {
    "kind": "dev",
    "methods": {
      "approve(address,uint256)": {
        "details": "See {IERC721-approve}."
      },
      "balanceOf(address)": {
        "details": "See {IERC721-balanceOf}."
      },
      "getApproved(uint256)": {
        "details": "See {IERC721-getApproved}."
      },
      "isApprovedForAll(address,address)": {
        "details": "See {IERC721-isApprovedForAll}."
      },
      "name()": {
        "details": "See {IERC721Metadata-name}."
      },
      "ownerOf(uint256)": {
        "details": "See {IERC721-ownerOf}."
      },
      "safeTransferFrom(address,address,uint256)": {
        "details": "See {IERC721-safeTransferFrom}."
      },
      "safeTransferFrom(address,address,uint256,bytes)": {
        "details": "See {IERC721-safeTransferFrom}."
      },
      "setApprovalForAll(address,bool)": {
        "details": "See {IERC721-setApprovalForAll}."
      },
      "supportsInterface(bytes4)": {
        "details": "See {IERC165-supportsInterface}."
      },
      "symbol()": {
        "details": "See {IERC721Metadata-symbol}."
      },
      "tokenURI(uint256)": {
        "details": "See {IERC721Metadata-tokenURI}."
      },
      "transferFrom(address,address,uint256)": {
        "details": "See {IERC721-transferFrom}."
      }
    },
    "version": 1
  },
  "userdoc": {
    "kind": "user",
    "methods": {},
    "version": 1
  },
  "storageLayout": {
    "storage": [
      {
        "astId": 25,
        "contract": "contracts/SVGNFT.sol:SVGNFT",
        "label": "_name",
        "offset": 0,
        "slot": "0",
        "type": "t_string_storage"
      },
      {
        "astId": 27,
        "contract": "contracts/SVGNFT.sol:SVGNFT",
        "label": "_symbol",
        "offset": 0,
        "slot": "1",
        "type": "t_string_storage"
      },
      {
        "astId": 31,
        "contract": "contracts/SVGNFT.sol:SVGNFT",
        "label": "_owners",
        "offset": 0,
        "slot": "2",
        "type": "t_mapping(t_uint256,t_address)"
      },
      {
        "astId": 35,
        "contract": "contracts/SVGNFT.sol:SVGNFT",
        "label": "_balances",
        "offset": 0,
        "slot": "3",
        "type": "t_mapping(t_address,t_uint256)"
      },
      {
        "astId": 39,
        "contract": "contracts/SVGNFT.sol:SVGNFT",
        "label": "_tokenApprovals",
        "offset": 0,
        "slot": "4",
        "type": "t_mapping(t_uint256,t_address)"
      },
      {
        "astId": 45,
        "contract": "contracts/SVGNFT.sol:SVGNFT",
        "label": "_operatorApprovals",
        "offset": 0,
        "slot": "5",
        "type": "t_mapping(t_address,t_mapping(t_address,t_bool))"
      },
      {
        "astId": 977,
        "contract": "contracts/SVGNFT.sol:SVGNFT",
        "label": "_tokenURIs",
        "offset": 0,
        "slot": "6",
        "type": "t_mapping(t_uint256,t_string_storage)"
      },
      {
        "astId": 1799,
        "contract": "contracts/SVGNFT.sol:SVGNFT",
        "label": "tokenCounter",
        "offset": 0,
        "slot": "7",
        "type": "t_uint256"
      }
    ],
    "types": {
      "t_address": {
        "encoding": "inplace",
        "label": "address",
        "numberOfBytes": "20"
      },
      "t_bool": {
        "encoding": "inplace",
        "label": "bool",
        "numberOfBytes": "1"
      },
      "t_mapping(t_address,t_bool)": {
        "encoding": "mapping",
        "key": "t_address",
        "label": "mapping(address => bool)",
        "numberOfBytes": "32",
        "value": "t_bool"
      },
      "t_mapping(t_address,t_mapping(t_address,t_bool))": {
        "encoding": "mapping",
        "key": "t_address",
        "label": "mapping(address => mapping(address => bool))",
        "numberOfBytes": "32",
        "value": "t_mapping(t_address,t_bool)"
      },
      "t_mapping(t_address,t_uint256)": {
        "encoding": "mapping",
        "key": "t_address",
        "label": "mapping(address => uint256)",
        "numberOfBytes": "32",
        "value": "t_uint256"
      },
      "t_mapping(t_uint256,t_address)": {
        "encoding": "mapping",
        "key": "t_uint256",
        "label": "mapping(uint256 => address)",
        "numberOfBytes": "32",
        "value": "t_address"
      },
      "t_mapping(t_uint256,t_string_storage)": {
        "encoding": "mapping",
        "key": "t_uint256",
        "label": "mapping(uint256 => string)",
        "numberOfBytes": "32",
        "value": "t_string_storage"
      },
      "t_string_storage": {
        "encoding": "bytes",
        "label": "string",
        "numberOfBytes": "32"
      },
      "t_uint256": {
        "encoding": "inplace",
        "label": "uint256",
        "numberOfBytes": "32"
      }
    }
  }
}